:100000000C945A000C9464000C9464000C946400EA
:100010000C9464000C9464000C9464000C946400D0
:100020000C9464000C9464000C9464000C946400C0
:100030000C9464000C9464000C9464000C946400B0
:100040000C9464000C9464000C9464000C946400A0
:100050000C9464000C9464000C9464000C94640090
:100060000C9464000C9464000C9464000C94640080
:100070000C9464000C9464000C9464000C94640070
:100080000C9464000C9464000C9464000C94640060
:100090000C9464000C9464000C9464000C94640050
:1000A0000C9464000C9464000C9464000C94640040
:1000B0000C94640011241FBECFEFD8E0DEBFCDBF8B
:1000C0000E942C010C945A010C940000FC01413058
:1000D00059F4208181E090E002C0880F991F6A9551
:1000E000E2F7822B80830895908121E030E002C006
:1000F000220F331F6A95E2F7209529232083089564
:10010000FC01413059F4208181E090E002C0880F69
:10011000991F6A95E2F7822B80830895908121E0F0
:1001200030E002C0220F331F6A95E2F720952923A1
:1001300020830895442361F0FC01408121E030E0F8
:1001400002C0220F331F6A95E2F7242B2083089503
:10015000FC01408121E030E002C0220F331F6A958C
:10016000E2F7209524232083089541E061E087E2AF
:1001700090E00E94660041E062E087E290E00E9429
:10018000660041E063E087E290E00E94660041E0A3
:1001900067E08AE290E00E94660041E066E08AE261
:1001A00090E00E94660041E065E08AE290E00E94F3
:1001B000660041E064E08AE290E00E94660040E070
:1001C00063E08AE290E00E94660040E062E08AE23A
:1001D00090E00E94660040E061E08AE290E00E94C8
:1001E000660041E063E08BE290E00E949A0041E00B
:1001F00062E08BE290E00E949A0041E061E08BE2D5
:1002000090E00E949A0040E061E088E290E00E9465
:10021000800040E062E088E290E00E94800040E0E0
:1002200063E088E290E00E948000089541E063E08E
:1002300088E290E00E9480002FE38DE093E021505F
:1002400080409040E1F700C0000040E063E088E2B9
:1002500090E00E94800008950E94B50040E067E0B1
:100260008BE290E00E94800041E066E08BE290E04B
:100270000E94800041E065E08BE290E00E948000F7
:1002800041E064E08BE290E00E9480000E94160151
:100290002FE38DE093E0215080409040E1F700C0D3
:1002A00000000E94160189B18E708E30E1F30E9429
:0802B0001601F9CFF894FFCF0D
:00000001FF
