:100000000C945A000C9477000C9477000C947700B1
:100010000C9477000C9477000C9477000C94770084
:100020000C9477000C9477000C9477000C94770074
:100030000C9477000C9477000C9477000C94770064
:100040000C9477000C9477000C9477000C94770054
:100050000C9477000C9477000C9477000C94770044
:100060000C9477000C9477000C9477000C94770034
:100070000C9477000C9477000C9477000C94770024
:100080000C9477000C9477000C9477000C94770014
:100090000C9477000C9477000C9477000C94770004
:1000A0000C9477000C9477000C9477000C947700F4
:1000B0000C94770011241FBECFEFD8E0DEBFCDBF78
:1000C00011E0A0E0B1E0ECE7F4E002C005900D9291
:1000D000AC30B107D9F721E0ACE0B1E001C01D922E
:1000E000A031B207E1F70E94EF010C943C020C949E
:1000F0000000FC01413059F4208181E090E002C011
:10010000880F991F6A95E2F7822B8083089590816A
:1001100021E030E002C0220F331F6A95E2F72095FC
:10012000292320830895FC01413059F4208181E086
:1001300090E002C0880F991F6A95E2F7822B8083B6
:100140000895908121E030E002C0220F331F6A95AC
:10015000E2F72095292320830895442361F0FC01D0
:10016000408121E030E002C0220F331F6A95E2F7A0
:10017000242B20830895FC01408121E030E002C05F
:10018000220F331F6A95E2F72095242320830895D8
:1001900041E061E087E290E00E94790041E062E0A6
:1001A00087E290E00E94790041E063E087E290E01E
:1001B0000E94790041E067E08AE290E00E947900C5
:1001C00041E066E08AE290E00E94790041E065E06B
:1001D0008AE290E00E94790041E064E08AE290E0E7
:1001E0000E94790040E063E08AE290E00E9479009A
:1001F00040E062E08AE290E00E94790040E061E045
:100200008AE290E00E94790041E063E08BE290E0B6
:100210000E94AD0041E062E08BE290E00E94AD0000
:1002200041E061E08BE290E00E94AD0040E061E0DF
:1002300088E290E00E94930040E062E088E290E073
:100240000E94930040E063E088E290E00E94930007
:10025000089541E061E088E290E00E9493002FE77A
:1002600084E89EE1215080409040E1F700C000000A
:1002700040E061E088E290E00E94930041E062E0AB
:1002800088E290E00E9493002FE784E89EE12150ED
:1002900080409040E1F700C0000040E062E088E26A
:1002A00090E00E949300089541E063E088E290E0CE
:1002B0000E9493002FE38DE093E021508040904016
:1002C000E1F700C0000040E063E088E290E00E94B7
:1002D0009300089520E03FC08BB1806F8BB93BB194
:1002E000622F70E047E050E0461B570B81E090E042
:1002F00002C0880F991F4A95E2F7809583238BB936
:1003000083EC99E00197F1F700C000004B990AC017
:10031000FB01EE0FFF1F6E0F7F1FFB01E050FF4F31
:10032000808108954A990AC0FB01EE0FFF1F6E0FEE
:100330007F1FFB01E050FF4F8181089549990AC05A
:10034000FB01EE0FFF1F6E0F7F1FFB01E050FF4F01
:10035000828108952F5F243008F4BECF80E0089595
:10036000CF93C0E038C00E946A01882371F1EC2F5E
:10037000F0E0E45FFE4F8083CF5F0E9454012FE9DD
:1003800086E891E0215080409040E1F700C00000F5
:10039000C430D9F444E050E060E070E08CE091E0DB
:1003A0000E9424020E9454018FE493EC0197F1F71C
:1003B00000C000000E9454018FE493EC0197F1F714
:1003C00000C000000E94540108C08FE493EC019724
:1003D000F1F700C00000C43030F2CF9108950E94C0
:1003E000C80041E067E08BE290E00E94930041E0AA
:1003F00066E08BE290E00E94930041E065E08BE2D2
:1004000090E00E94930041E064E08BE290E00E9463
:1004100093000E9429010E9454012FE38DE093E094
:10042000215080409040E1F700C000000E9454013C
:100430000E94B0012FE38DE093E021508040904076
:10044000E1F700C00000F4CFDC01CB0103C02D9127
:100450000E942F0241505040D0F70895262FF9995D
:10046000FECF1FBA92BD81BD20BD0FB6F894FA9A97
:0C047000F99A0FBE01960895F894FFCF92
:0C047C003132333435363738392A30231A
:00000001FF
